:060000000A128A1100291A
:1002000003178316880189010313831605148514C7
:1002100087010810881008118811031383128501C3
:1002200087018801031383120518192185182021DD
:10023000142905181929880A0808002287000800CF
:0E02400085182029880308080022870008007E
:100400008A018A140F3982073F3406345B344F3433
:1004100066346D347D3407347F346F3477347C3404
:0804200039345E347934713483
:04400E00C430FF3F7C
:00000001FF
